{
  "_format": "hh-sol-artifact-1",
  "contractName": "Lottery",
  "sourceName": "contracts/Lottery.sol",
  "abi": [
    {
      "inputs": [
        {
          "internalType": "address",
          "name": "vrfCoordinatorV2",
          "type": "address"
        },
        {
          "internalType": "uint256",
          "name": "entranceFee",
          "type": "uint256"
        },
        {
          "internalType": "bytes32",
          "name": "gasLane",
          "type": "bytes32"
        },
        {
          "internalType": "uint64",
          "name": "subscriptionId",
          "type": "uint64"
        },
        {
          "internalType": "uint32",
          "name": "callbackGasLimit",
          "type": "uint32"
        },
        {
          "internalType": "uint256",
          "name": "interval",
          "type": "uint256"
        }
      ],
      "stateMutability": "nonpayable",
      "type": "constructor"
    },
    {
      "inputs": [],
      "name": "Lottery__LotteryNotOpen",
      "type": "error"
    },
    {
      "inputs": [],
      "name": "Lottery__SendMoreETH",
      "type": "error"
    },
    {
      "inputs": [],
      "name": "Lottery__TransferFailed",
      "type": "error"
    },
    {
      "inputs": [
        {
          "internalType": "address",
          "name": "have",
          "type": "address"
        },
        {
          "internalType": "address",
          "name": "want",
          "type": "address"
        }
      ],
      "name": "OnlyCoordinatorCanFulfill",
      "type": "error"
    },
    {
      "inputs": [
        {
          "internalType": "uint256",
          "name": "currentBalance",
          "type": "uint256"
        },
        {
          "internalType": "uint256",
          "name": "numPlayers",
          "type": "uint256"
        },
        {
          "internalType": "uint256",
          "name": "lotteryState",
          "type": "uint256"
        }
      ],
      "name": "error_LotteryUpkeepNotNeeded",
      "type": "error"
    },
    {
      "anonymous": false,
      "inputs": [
        {
          "indexed": true,
          "internalType": "address",
          "name": "player",
          "type": "address"
        }
      ],
      "name": "LotteryEnter",
      "type": "event"
    },
    {
      "anonymous": false,
      "inputs": [
        {
          "indexed": true,
          "internalType": "uint256",
          "name": "requestId",
          "type": "uint256"
        }
      ],
      "name": "RequestedLotteryWinner",
      "type": "event"
    },
    {
      "anonymous": false,
      "inputs": [
        {
          "indexed": true,
          "internalType": "address",
          "name": "winner",
          "type": "address"
        }
      ],
      "name": "WinnerPicked",
      "type": "event"
    },
    {
      "inputs": [
        {
          "internalType": "bytes",
          "name": "",
          "type": "bytes"
        }
      ],
      "name": "checkUpkeep",
      "outputs": [
        {
          "internalType": "bool",
          "name": "upkeepNeeded",
          "type": "bool"
        },
        {
          "internalType": "bytes",
          "name": "",
          "type": "bytes"
        }
      ],
      "stateMutability": "view",
      "type": "function"
    },
    {
      "inputs": [],
      "name": "enterLottery",
      "outputs": [],
      "stateMutability": "payable",
      "type": "function"
    },
    {
      "inputs": [],
      "name": "getEntranceFee",
      "outputs": [
        {
          "internalType": "uint256",
          "name": "",
          "type": "uint256"
        }
      ],
      "stateMutability": "view",
      "type": "function"
    },
    {
      "inputs": [],
      "name": "getLatestTimeStamp",
      "outputs": [
        {
          "internalType": "uint256",
          "name": "",
          "type": "uint256"
        }
      ],
      "stateMutability": "view",
      "type": "function"
    },
    {
      "inputs": [],
      "name": "getLotteryState",
      "outputs": [
        {
          "internalType": "enum Lottery.LotteryState",
          "name": "",
          "type": "uint8"
        }
      ],
      "stateMutability": "view",
      "type": "function"
    },
    {
      "inputs": [],
      "name": "getNumWords",
      "outputs": [
        {
          "internalType": "uint256",
          "name": "",
          "type": "uint256"
        }
      ],
      "stateMutability": "pure",
      "type": "function"
    },
    {
      "inputs": [],
      "name": "getNumberOfPlayers",
      "outputs": [
        {
          "internalType": "uint256",
          "name": "",
          "type": "uint256"
        }
      ],
      "stateMutability": "view",
      "type": "function"
    },
    {
      "inputs": [
        {
          "internalType": "uint256",
          "name": "playerIndex",
          "type": "uint256"
        }
      ],
      "name": "getPlayer",
      "outputs": [
        {
          "internalType": "address",
          "name": "",
          "type": "address"
        }
      ],
      "stateMutability": "view",
      "type": "function"
    },
    {
      "inputs": [],
      "name": "getRecentWinner",
      "outputs": [
        {
          "internalType": "address",
          "name": "",
          "type": "address"
        }
      ],
      "stateMutability": "view",
      "type": "function"
    },
    {
      "inputs": [],
      "name": "getRequestConfirmations",
      "outputs": [
        {
          "internalType": "uint256",
          "name": "",
          "type": "uint256"
        }
      ],
      "stateMutability": "pure",
      "type": "function"
    },
    {
      "inputs": [
        {
          "internalType": "bytes",
          "name": "",
          "type": "bytes"
        }
      ],
      "name": "performUpkeep",
      "outputs": [],
      "stateMutability": "nonpayable",
      "type": "function"
    },
    {
      "inputs": [
        {
          "internalType": "uint256",
          "name": "requestId",
          "type": "uint256"
        },
        {
          "internalType": "uint256[]",
          "name": "randomWords",
          "type": "uint256[]"
        }
      ],
      "name": "rawFulfillRandomWords",
      "outputs": [],
      "stateMutability": "nonpayable",
      "type": "function"
    }
  ],
  "bytecode": "0x6101606040523480156200001257600080fd5b50604051620017e1380380620017e1833981810160405281019062000038919062000294565b858073ffffffffffffffffffffffffffffffffffffffff1660808173ffffffffffffffffffffffffffffffffffffffff1681525050508460a081815250508573ffffffffffffffffffffffffffffffffffffffff1660c08173ffffffffffffffffffffffffffffffffffffffff16815250508360e081815250508267ffffffffffffffff166101008167ffffffffffffffff16815250508163ffffffff166101208163ffffffff16815250506000600260146101000a81548160ff021916908360018111156200010d576200010c62000330565b5b0217905550426001819055508061014081815250505050505050506200035f565b600080fd5b600073ffffffffffffffffffffffffffffffffffffffff82169050919050565b6000620001608262000133565b9050919050565b620001728162000153565b81146200017e57600080fd5b50565b600081519050620001928162000167565b92915050565b6000819050919050565b620001ad8162000198565b8114620001b957600080fd5b50565b600081519050620001cd81620001a2565b92915050565b6000819050919050565b620001e881620001d3565b8114620001f457600080fd5b50565b6000815190506200020881620001dd565b92915050565b600067ffffffffffffffff82169050919050565b6200022d816200020e565b81146200023957600080fd5b50565b6000815190506200024d8162000222565b92915050565b600063ffffffff82169050919050565b6200026e8162000253565b81146200027a57600080fd5b50565b6000815190506200028e8162000263565b92915050565b60008060008060008060c08789031215620002b457620002b36200012e565b5b6000620002c489828a0162000181565b9650506020620002d789828a01620001bc565b9550506040620002ea89828a01620001f7565b9450506060620002fd89828a016200023c565b93505060806200031089828a016200027d565b92505060a06200032389828a01620001bc565b9150509295509295509295565b7f4e487b7100000000000000000000000000000000000000000000000000000000600052602160045260246000fd5b60805160a05160c05160e051610100516101205161014051611419620003c86000396000610642015260006104da015260006104b7015260006104960152600061045a0152600081816102b401526106e90152600081816102da015261032e01526114196000f3fe6080604052600436106100a75760003560e01c80635f1b0fd8116100645780635f1b0fd8146101aa5780636b68c03c146101d55780636e04ff0d14610200578063c1af57851461023e578063e55ae4e814610248578063fd6673f514610285576100a7565b806309bc33a7146100ac5780631fe543e3146100d7578063320229eb146101005780634585e33b1461012b578063473f1ddc1461015457806353a2c19a1461017f575b600080fd5b3480156100b857600080fd5b506100c16102b0565b6040516100ce9190610b9a565b60405180910390f35b3480156100e357600080fd5b506100fe60048036038101906100f99190610d4e565b6102d8565b005b34801561010c57600080fd5b50610115610398565b6040516101229190610b9a565b60405180910390f35b34801561013757600080fd5b50610152600480360381019061014d9190610e05565b6103a2565b005b34801561016057600080fd5b506101696105a2565b6040516101769190610e93565b60405180910390f35b34801561018b57600080fd5b506101946105cc565b6040516101a19190610b9a565b60405180910390f35b3480156101b657600080fd5b506101bf6105db565b6040516101cc9190610b9a565b60405180910390f35b3480156101e157600080fd5b506101ea6105e8565b6040516101f79190610f25565b60405180910390f35b34801561020c57600080fd5b5061022760048036038101906102229190610ff5565b6105ff565b6040516102359291906110e1565b60405180910390f35b6102466106e7565b005b34801561025457600080fd5b5061026f600480360381019061026a9190611111565b610856565b60405161027c9190610e93565b60405180910390f35b34801561029157600080fd5b5061029a61089d565b6040516102a79190610b9a565b60405180910390f35b60007f0000000000000000000000000000000000000000000000000000000000000000905090565b7f000000000000000000000000000000000000000000000000000000000000000073ffffffffffffffffffffffffffffffffffffffff163373ffffffffffffffffffffffffffffffffffffffff161461038a57337f00000000000000000000000000000000000000000000000000000000000000006040517f1cf993f400000000000000000000000000000000000000000000000000000000815260040161038192919061113e565b60405180910390fd5b61039482826108a9565b5050565b6000600154905090565b60006103bc604051806020016040528060008152506105ff565b5090508061042b5747600080549050600260149054906101000a900460ff1660018111156103ed576103ec610eae565b5b6040517fddbb35a800000000000000000000000000000000000000000000000000000000815260040161042293929190611167565b60405180910390fd5b6001600260146101000a81548160ff0219169083600181111561045157610450610eae565b5b021790555060007f000000000000000000000000000000000000000000000000000000000000000073ffffffffffffffffffffffffffffffffffffffff16635d3b1d307f00000000000000000000000000000000000000000000000000000000000000007f000000000000000000000000000000000000000000000000000000000000000060037f000000000000000000000000000000000000000000000000000000000000000060016040518663ffffffff1660e01b815260040161051b959493929190611216565b602060405180830381600087803b15801561053557600080fd5b505af1158015610549573d6000803e3d6000fd5b505050506040513d601f19601f8201168201806040525081019061056d919061127e565b9050807febf56642252004c18a776f30d528e7a0ce8c5db14b6596fb6550f630c8a24c6c60405160405180910390a250505050565b6000600260009054906101000a900473ffffffffffffffffffffffffffffffffffffffff16905090565b6000600163ffffffff16905090565b6000600361ffff16905090565b6000600260149054906101000a900460ff16905090565b600060606000600260149054906101000a900460ff16600181111561062757610626610eae565b5b6000600181111561063b5761063a610eae565b5b14905060007f00000000000000000000000000000000000000000000000000000000000000006001544261066f91906112da565b1190506000806000805490501190506000804711905083801561068f5750825b80156106985750815b80156106a15750805b9550856040518060400160405280600381526020017f30783000000000000000000000000000000000000000000000000000000000008152509550955050505050915091565b7f0000000000000000000000000000000000000000000000000000000000000000341015610741576040517f1eefa5a700000000000000000000000000000000000000000000000000000000815260040160405180910390fd5b6000600181111561075557610754610eae565b5b600260149054906101000a900460ff16600181111561077757610776610eae565b5b146107ae576040517f823ea8bb00000000000000000000000000000000000000000000000000000000815260040160405180910390fd5b6000339080600181540180825580915050600190039060005260206000200160009091909190916101000a81548173ffffffffffffffffffffffffffffffffffffffff021916908373ffffffffffffffffffffffffffffffffffffffff1602179055503373ffffffffffffffffffffffffffffffffffffffff167f1d64fb5ba9f2548c5b98468d58f25b87b9e866afee0122e92d9fe722bf85076c60405160405180910390a2565b600080828154811061086b5761086a61130e565b5b9060005260206000200160009054906101000a900473ffffffffffffffffffffffffffffffffffffffff169050919050565b60008080549050905090565b60008080549050826000815181106108c4576108c361130e565b5b60200260200101516108d6919061136c565b905060008082815481106108ed576108ec61130e565b5b9060005260206000200160009054906101000a900473ffffffffffffffffffffffffffffffffffffffff16905080600260006101000a81548173ffffffffffffffffffffffffffffffffffffffff021916908373ffffffffffffffffffffffffffffffffffffffff1602179055506000600260146101000a81548160ff0219169083600181111561098157610980610eae565b5b0217905550600067ffffffffffffffff8111156109a1576109a0610c0b565b5b6040519080825280602002602001820160405280156109cf5781602001602082028036833780820191505090505b50600090805190602001906109e5929190610ada565b504260018190555060008173ffffffffffffffffffffffffffffffffffffffff1647604051610a13906113ce565b60006040518083038185875af1925050503d8060008114610a50576040519150601f19603f3d011682016040523d82523d6000602084013e610a55565b606091505b5050905080610a90576040517f1c94012000000000000000000000000000000000000000000000000000000000815260040160405180910390fd5b8173ffffffffffffffffffffffffffffffffffffffff167f5b690ec4a06fe979403046eaeea5b3ce38524683c3001f662c8b5a829632f7df60405160405180910390a25050505050565b828054828255906000526020600020908101928215610b53579160200282015b82811115610b525782518260006101000a81548173ffffffffffffffffffffffffffffffffffffffff021916908373ffffffffffffffffffffffffffffffffffffffff16021790555091602001919060010190610afa565b5b509050610b609190610b64565b5090565b5b80821115610b7d576000816000905550600101610b65565b5090565b6000819050919050565b610b9481610b81565b82525050565b6000602082019050610baf6000830184610b8b565b92915050565b6000604051905090565b600080fd5b600080fd5b610bd281610b81565b8114610bdd57600080fd5b50565b600081359050610bef81610bc9565b92915050565b600080fd5b6000601f19601f8301169050919050565b7f4e487b7100000000000000000000000000000000000000000000000000000000600052604160045260246000fd5b610c4382610bfa565b810181811067ffffffffffffffff82111715610c6257610c61610c0b565b5b80604052505050565b6000610c75610bb5565b9050610c818282610c3a565b919050565b600067ffffffffffffffff821115610ca157610ca0610c0b565b5b602082029050602081019050919050565b600080fd5b6000610cca610cc584610c86565b610c6b565b90508083825260208201905060208402830185811115610ced57610cec610cb2565b5b835b81811015610d165780610d028882610be0565b845260208401935050602081019050610cef565b5050509392505050565b600082601f830112610d3557610d34610bf5565b5b8135610d45848260208601610cb7565b91505092915050565b60008060408385031215610d6557610d64610bbf565b5b6000610d7385828601610be0565b925050602083013567ffffffffffffffff811115610d9457610d93610bc4565b5b610da085828601610d20565b9150509250929050565b600080fd5b60008083601f840112610dc557610dc4610bf5565b5b8235905067ffffffffffffffff811115610de257610de1610daa565b5b602083019150836001820283011115610dfe57610dfd610cb2565b5b9250929050565b60008060208385031215610e1c57610e1b610bbf565b5b600083013567ffffffffffffffff811115610e3a57610e39610bc4565b5b610e4685828601610daf565b92509250509250929050565b600073ffffffffffffffffffffffffffffffffffffffff82169050919050565b6000610e7d82610e52565b9050919050565b610e8d81610e72565b82525050565b6000602082019050610ea86000830184610e84565b92915050565b7f4e487b7100000000000000000000000000000000000000000000000000000000600052602160045260246000fd5b60028110610eee57610eed610eae565b5b50565b6000819050610eff82610edd565b919050565b6000610f0f82610ef1565b9050919050565b610f1f81610f04565b82525050565b6000602082019050610f3a6000830184610f16565b92915050565b600080fd5b600067ffffffffffffffff821115610f6057610f5f610c0b565b5b610f6982610bfa565b9050602081019050919050565b82818337600083830152505050565b6000610f98610f9384610f45565b610c6b565b905082815260208101848484011115610fb457610fb3610f40565b5b610fbf848285610f76565b509392505050565b600082601f830112610fdc57610fdb610bf5565b5b8135610fec848260208601610f85565b91505092915050565b60006020828403121561100b5761100a610bbf565b5b600082013567ffffffffffffffff81111561102957611028610bc4565b5b61103584828501610fc7565b91505092915050565b60008115159050919050565b6110538161103e565b82525050565b600081519050919050565b600082825260208201905092915050565b60005b83811015611093578082015181840152602081019050611078565b838111156110a2576000848401525b50505050565b60006110b382611059565b6110bd8185611064565b93506110cd818560208601611075565b6110d681610bfa565b840191505092915050565b60006040820190506110f6600083018561104a565b818103602083015261110881846110a8565b90509392505050565b60006020828403121561112757611126610bbf565b5b600061113584828501610be0565b91505092915050565b60006040820190506111536000830185610e84565b6111606020830184610e84565b9392505050565b600060608201905061117c6000830186610b8b565b6111896020830185610b8b565b6111966040830184610b8b565b949350505050565b6000819050919050565b6111b18161119e565b82525050565b600067ffffffffffffffff82169050919050565b6111d4816111b7565b82525050565b600061ffff82169050919050565b6111f1816111da565b82525050565b600063ffffffff82169050919050565b611210816111f7565b82525050565b600060a08201905061122b60008301886111a8565b61123860208301876111cb565b61124560408301866111e8565b6112526060830185611207565b61125f6080830184611207565b9695505050505050565b60008151905061127881610bc9565b92915050565b60006020828403121561129457611293610bbf565b5b60006112a284828501611269565b91505092915050565b7f4e487b7100000000000000000000000000000000000000000000000000000000600052601160045260246000fd5b60006112e582610b81565b91506112f083610b81565b925082821015611303576113026112ab565b5b828203905092915050565b7f4e487b7100000000000000000000000000000000000000000000000000000000600052603260045260246000fd5b7f4e487b7100000000000000000000000000000000000000000000000000000000600052601260045260246000fd5b600061137782610b81565b915061138283610b81565b9250826113925761139161133d565b5b828206905092915050565b600081905092915050565b50565b60006113b860008361139d565b91506113c3826113a8565b600082019050919050565b60006113d9826113ab565b915081905091905056fea264697066735822122066a5e694b8534022f4e243d572afd32976a3226db2089ecd7fc9ebd2f815587c64736f6c63430008090033",
  "linkReferences": {},
  "deployedLinkReferences": {}
}