{
  "_format": "hh-sol-artifact-1",
  "contractName": "Lottery",
  "sourceName": "contracts/Lottery.sol",
  "abi": [
    {
      "inputs": [
        {
          "internalType": "address",
          "name": "vrfCoordinatorV2",
          "type": "address"
        },
        {
          "internalType": "uint256",
          "name": "entranceFee",
          "type": "uint256"
        },
        {
          "internalType": "bytes32",
          "name": "gasLane",
          "type": "bytes32"
        },
        {
          "internalType": "uint64",
          "name": "subscriptionId",
          "type": "uint64"
        },
        {
          "internalType": "uint32",
          "name": "callbackGasLimit",
          "type": "uint32"
        },
        {
          "internalType": "uint256",
          "name": "interval",
          "type": "uint256"
        }
      ],
      "stateMutability": "nonpayable",
      "type": "constructor"
    },
    {
      "inputs": [],
      "name": "Lottery__LotteryNotOpen",
      "type": "error"
    },
    {
      "inputs": [],
      "name": "Lottery__SendMoreETH",
      "type": "error"
    },
    {
      "inputs": [],
      "name": "Lottery__TransferFailed",
      "type": "error"
    },
    {
      "inputs": [
        {
          "internalType": "address",
          "name": "have",
          "type": "address"
        },
        {
          "internalType": "address",
          "name": "want",
          "type": "address"
        }
      ],
      "name": "OnlyCoordinatorCanFulfill",
      "type": "error"
    },
    {
      "inputs": [
        {
          "internalType": "uint256",
          "name": "currentBalance",
          "type": "uint256"
        },
        {
          "internalType": "uint256",
          "name": "numPlayers",
          "type": "uint256"
        },
        {
          "internalType": "uint256",
          "name": "lotteryState",
          "type": "uint256"
        }
      ],
      "name": "error_LotteryUpkeepNotNeeded",
      "type": "error"
    },
    {
      "anonymous": false,
      "inputs": [
        {
          "indexed": true,
          "internalType": "address",
          "name": "player",
          "type": "address"
        }
      ],
      "name": "LotteryEnter",
      "type": "event"
    },
    {
      "anonymous": false,
      "inputs": [
        {
          "indexed": true,
          "internalType": "uint256",
          "name": "requestId",
          "type": "uint256"
        }
      ],
      "name": "RequestedLotteryWinner",
      "type": "event"
    },
    {
      "anonymous": false,
      "inputs": [
        {
          "indexed": true,
          "internalType": "address",
          "name": "winner",
          "type": "address"
        }
      ],
      "name": "WinnerPicked",
      "type": "event"
    },
    {
      "inputs": [
        {
          "internalType": "bytes",
          "name": "",
          "type": "bytes"
        }
      ],
      "name": "checkUpkeep",
      "outputs": [
        {
          "internalType": "bool",
          "name": "upkeepNeeded",
          "type": "bool"
        },
        {
          "internalType": "bytes",
          "name": "",
          "type": "bytes"
        }
      ],
      "stateMutability": "view",
      "type": "function"
    },
    {
      "inputs": [],
      "name": "enterLottery",
      "outputs": [],
      "stateMutability": "payable",
      "type": "function"
    },
    {
      "inputs": [],
      "name": "getEntranceFee",
      "outputs": [
        {
          "internalType": "uint256",
          "name": "",
          "type": "uint256"
        }
      ],
      "stateMutability": "view",
      "type": "function"
    },
    {
      "inputs": [],
      "name": "getLotteryState",
      "outputs": [
        {
          "internalType": "enum Lottery.LotteryState",
          "name": "",
          "type": "uint8"
        }
      ],
      "stateMutability": "view",
      "type": "function"
    },
    {
      "inputs": [],
      "name": "getNumWords",
      "outputs": [
        {
          "internalType": "uint256",
          "name": "",
          "type": "uint256"
        }
      ],
      "stateMutability": "pure",
      "type": "function"
    },
    {
      "inputs": [
        {
          "internalType": "uint256",
          "name": "playerIndex",
          "type": "uint256"
        }
      ],
      "name": "getPlayer",
      "outputs": [
        {
          "internalType": "address",
          "name": "",
          "type": "address"
        }
      ],
      "stateMutability": "view",
      "type": "function"
    },
    {
      "inputs": [],
      "name": "getRecentWinner",
      "outputs": [
        {
          "internalType": "address",
          "name": "",
          "type": "address"
        }
      ],
      "stateMutability": "view",
      "type": "function"
    },
    {
      "inputs": [],
      "name": "getRequestConfirmations",
      "outputs": [
        {
          "internalType": "uint256",
          "name": "",
          "type": "uint256"
        }
      ],
      "stateMutability": "pure",
      "type": "function"
    },
    {
      "inputs": [
        {
          "internalType": "bytes",
          "name": "",
          "type": "bytes"
        }
      ],
      "name": "performUpkeep",
      "outputs": [],
      "stateMutability": "nonpayable",
      "type": "function"
    },
    {
      "inputs": [
        {
          "internalType": "uint256",
          "name": "requestId",
          "type": "uint256"
        },
        {
          "internalType": "uint256[]",
          "name": "randomWords",
          "type": "uint256[]"
        }
      ],
      "name": "rawFulfillRandomWords",
      "outputs": [],
      "stateMutability": "nonpayable",
      "type": "function"
    }
  ],
  "bytecode": "0x6101606040523480156200001257600080fd5b506040516200175f3803806200175f833981810160405281019062000038919062000294565b858073ffffffffffffffffffffffffffffffffffffffff1660808173ffffffffffffffffffffffffffffffffffffffff1681525050508460a081815250508573ffffffffffffffffffffffffffffffffffffffff1660c08173ffffffffffffffffffffffffffffffffffffffff16815250508360e081815250508267ffffffffffffffff166101008167ffffffffffffffff16815250508163ffffffff166101208163ffffffff16815250506000600260146101000a81548160ff021916908360018111156200010d576200010c62000330565b5b0217905550426001819055508061014081815250505050505050506200035f565b600080fd5b600073ffffffffffffffffffffffffffffffffffffffff82169050919050565b6000620001608262000133565b9050919050565b620001728162000153565b81146200017e57600080fd5b50565b600081519050620001928162000167565b92915050565b6000819050919050565b620001ad8162000198565b8114620001b957600080fd5b50565b600081519050620001cd81620001a2565b92915050565b6000819050919050565b620001e881620001d3565b8114620001f457600080fd5b50565b6000815190506200020881620001dd565b92915050565b600067ffffffffffffffff82169050919050565b6200022d816200020e565b81146200023957600080fd5b50565b6000815190506200024d8162000222565b92915050565b600063ffffffff82169050919050565b6200026e8162000253565b81146200027a57600080fd5b50565b6000815190506200028e8162000263565b92915050565b60008060008060008060c08789031215620002b457620002b36200012e565b5b6000620002c489828a0162000181565b9650506020620002d789828a01620001bc565b9550506040620002ea89828a01620001f7565b9450506060620002fd89828a016200023c565b93505060806200031089828a016200027d565b92505060a06200032389828a01620001bc565b9150509295509295509295565b7f4e487b7100000000000000000000000000000000000000000000000000000000600052602160045260246000fd5b60805160a05160c05160e051610100516101205161014051611397620003c860003960006105cc015260006104640152600061044101526000610420015260006103e4015260008181610248015261067301526000818161026e01526102c201526113976000f3fe6080604052600436106100915760003560e01c80635f1b0fd8116100595780635f1b0fd8146101695780636b68c03c146101945780636e04ff0d146101bf578063c1af5785146101fd578063e55ae4e81461020757610091565b806309bc33a7146100965780631fe543e3146100c15780634585e33b146100ea578063473f1ddc1461011357806353a2c19a1461013e575b600080fd5b3480156100a257600080fd5b506100ab610244565b6040516100b89190610b18565b60405180910390f35b3480156100cd57600080fd5b506100e860048036038101906100e39190610ccc565b61026c565b005b3480156100f657600080fd5b50610111600480360381019061010c9190610d83565b61032c565b005b34801561011f57600080fd5b5061012861052c565b6040516101359190610e11565b60405180910390f35b34801561014a57600080fd5b50610153610556565b6040516101609190610b18565b60405180910390f35b34801561017557600080fd5b5061017e610565565b60405161018b9190610b18565b60405180910390f35b3480156101a057600080fd5b506101a9610572565b6040516101b69190610ea3565b60405180910390f35b3480156101cb57600080fd5b506101e660048036038101906101e19190610f73565b610589565b6040516101f492919061105f565b60405180910390f35b610205610671565b005b34801561021357600080fd5b5061022e6004803603810190610229919061108f565b6107e0565b60405161023b9190610e11565b60405180910390f35b60007f0000000000000000000000000000000000000000000000000000000000000000905090565b7f000000000000000000000000000000000000000000000000000000000000000073ffffffffffffffffffffffffffffffffffffffff163373ffffffffffffffffffffffffffffffffffffffff161461031e57337f00000000000000000000000000000000000000000000000000000000000000006040517f1cf993f40000000000000000000000000000000000000000000000000000000081526004016103159291906110bc565b60405180910390fd5b6103288282610827565b5050565b600061034660405180602001604052806000815250610589565b509050806103b55747600080549050600260149054906101000a900460ff16600181111561037757610376610e2c565b5b6040517fddbb35a80000000000000000000000000000000000000000000000000000000081526004016103ac939291906110e5565b60405180910390fd5b6001600260146101000a81548160ff021916908360018111156103db576103da610e2c565b5b021790555060007f000000000000000000000000000000000000000000000000000000000000000073ffffffffffffffffffffffffffffffffffffffff16635d3b1d307f00000000000000000000000000000000000000000000000000000000000000007f000000000000000000000000000000000000000000000000000000000000000060037f000000000000000000000000000000000000000000000000000000000000000060016040518663ffffffff1660e01b81526004016104a5959493929190611194565b602060405180830381600087803b1580156104bf57600080fd5b505af11580156104d3573d6000803e3d6000fd5b505050506040513d601f19601f820116820180604052508101906104f791906111fc565b9050807febf56642252004c18a776f30d528e7a0ce8c5db14b6596fb6550f630c8a24c6c60405160405180910390a250505050565b6000600260009054906101000a900473ffffffffffffffffffffffffffffffffffffffff16905090565b6000600163ffffffff16905090565b6000600361ffff16905090565b6000600260149054906101000a900460ff16905090565b600060606000600260149054906101000a900460ff1660018111156105b1576105b0610e2c565b5b600060018111156105c5576105c4610e2c565b5b14905060007f0000000000000000000000000000000000000000000000000000000000000000600154426105f99190611258565b119050600080600080549050119050600080471190508380156106195750825b80156106225750815b801561062b5750805b9550856040518060400160405280600381526020017f30783000000000000000000000000000000000000000000000000000000000008152509550955050505050915091565b7f00000000000000000000000000000000000000000000000000000000000000003410156106cb576040517f1eefa5a700000000000000000000000000000000000000000000000000000000815260040160405180910390fd5b600060018111156106df576106de610e2c565b5b600260149054906101000a900460ff16600181111561070157610700610e2c565b5b14610738576040517f823ea8bb00000000000000000000000000000000000000000000000000000000815260040160405180910390fd5b6000339080600181540180825580915050600190039060005260206000200160009091909190916101000a81548173ffffffffffffffffffffffffffffffffffffffff021916908373ffffffffffffffffffffffffffffffffffffffff1602179055503373ffffffffffffffffffffffffffffffffffffffff167f1d64fb5ba9f2548c5b98468d58f25b87b9e866afee0122e92d9fe722bf85076c60405160405180910390a2565b60008082815481106107f5576107f461128c565b5b9060005260206000200160009054906101000a900473ffffffffffffffffffffffffffffffffffffffff169050919050565b60008080549050826000815181106108425761084161128c565b5b602002602001015161085491906112ea565b9050600080828154811061086b5761086a61128c565b5b9060005260206000200160009054906101000a900473ffffffffffffffffffffffffffffffffffffffff16905080600260006101000a81548173ffffffffffffffffffffffffffffffffffffffff021916908373ffffffffffffffffffffffffffffffffffffffff1602179055506000600260146101000a81548160ff021916908360018111156108ff576108fe610e2c565b5b0217905550600067ffffffffffffffff81111561091f5761091e610b89565b5b60405190808252806020026020018201604052801561094d5781602001602082028036833780820191505090505b5060009080519060200190610963929190610a58565b504260018190555060008173ffffffffffffffffffffffffffffffffffffffff16476040516109919061134c565b60006040518083038185875af1925050503d80600081146109ce576040519150601f19603f3d011682016040523d82523d6000602084013e6109d3565b606091505b5050905080610a0e576040517f1c94012000000000000000000000000000000000000000000000000000000000815260040160405180910390fd5b8173ffffffffffffffffffffffffffffffffffffffff167f5b690ec4a06fe979403046eaeea5b3ce38524683c3001f662c8b5a829632f7df60405160405180910390a25050505050565b828054828255906000526020600020908101928215610ad1579160200282015b82811115610ad05782518260006101000a81548173ffffffffffffffffffffffffffffffffffffffff021916908373ffffffffffffffffffffffffffffffffffffffff16021790555091602001919060010190610a78565b5b509050610ade9190610ae2565b5090565b5b80821115610afb576000816000905550600101610ae3565b5090565b6000819050919050565b610b1281610aff565b82525050565b6000602082019050610b2d6000830184610b09565b92915050565b6000604051905090565b600080fd5b600080fd5b610b5081610aff565b8114610b5b57600080fd5b50565b600081359050610b6d81610b47565b92915050565b600080fd5b6000601f19601f8301169050919050565b7f4e487b7100000000000000000000000000000000000000000000000000000000600052604160045260246000fd5b610bc182610b78565b810181811067ffffffffffffffff82111715610be057610bdf610b89565b5b80604052505050565b6000610bf3610b33565b9050610bff8282610bb8565b919050565b600067ffffffffffffffff821115610c1f57610c1e610b89565b5b602082029050602081019050919050565b600080fd5b6000610c48610c4384610c04565b610be9565b90508083825260208201905060208402830185811115610c6b57610c6a610c30565b5b835b81811015610c945780610c808882610b5e565b845260208401935050602081019050610c6d565b5050509392505050565b600082601f830112610cb357610cb2610b73565b5b8135610cc3848260208601610c35565b91505092915050565b60008060408385031215610ce357610ce2610b3d565b5b6000610cf185828601610b5e565b925050602083013567ffffffffffffffff811115610d1257610d11610b42565b5b610d1e85828601610c9e565b9150509250929050565b600080fd5b60008083601f840112610d4357610d42610b73565b5b8235905067ffffffffffffffff811115610d6057610d5f610d28565b5b602083019150836001820283011115610d7c57610d7b610c30565b5b9250929050565b60008060208385031215610d9a57610d99610b3d565b5b600083013567ffffffffffffffff811115610db857610db7610b42565b5b610dc485828601610d2d565b92509250509250929050565b600073ffffffffffffffffffffffffffffffffffffffff82169050919050565b6000610dfb82610dd0565b9050919050565b610e0b81610df0565b82525050565b6000602082019050610e266000830184610e02565b92915050565b7f4e487b7100000000000000000000000000000000000000000000000000000000600052602160045260246000fd5b60028110610e6c57610e6b610e2c565b5b50565b6000819050610e7d82610e5b565b919050565b6000610e8d82610e6f565b9050919050565b610e9d81610e82565b82525050565b6000602082019050610eb86000830184610e94565b92915050565b600080fd5b600067ffffffffffffffff821115610ede57610edd610b89565b5b610ee782610b78565b9050602081019050919050565b82818337600083830152505050565b6000610f16610f1184610ec3565b610be9565b905082815260208101848484011115610f3257610f31610ebe565b5b610f3d848285610ef4565b509392505050565b600082601f830112610f5a57610f59610b73565b5b8135610f6a848260208601610f03565b91505092915050565b600060208284031215610f8957610f88610b3d565b5b600082013567ffffffffffffffff811115610fa757610fa6610b42565b5b610fb384828501610f45565b91505092915050565b60008115159050919050565b610fd181610fbc565b82525050565b600081519050919050565b600082825260208201905092915050565b60005b83811015611011578082015181840152602081019050610ff6565b83811115611020576000848401525b50505050565b600061103182610fd7565b61103b8185610fe2565b935061104b818560208601610ff3565b61105481610b78565b840191505092915050565b60006040820190506110746000830185610fc8565b81810360208301526110868184611026565b90509392505050565b6000602082840312156110a5576110a4610b3d565b5b60006110b384828501610b5e565b91505092915050565b60006040820190506110d16000830185610e02565b6110de6020830184610e02565b9392505050565b60006060820190506110fa6000830186610b09565b6111076020830185610b09565b6111146040830184610b09565b949350505050565b6000819050919050565b61112f8161111c565b82525050565b600067ffffffffffffffff82169050919050565b61115281611135565b82525050565b600061ffff82169050919050565b61116f81611158565b82525050565b600063ffffffff82169050919050565b61118e81611175565b82525050565b600060a0820190506111a96000830188611126565b6111b66020830187611149565b6111c36040830186611166565b6111d06060830185611185565b6111dd6080830184611185565b9695505050505050565b6000815190506111f681610b47565b92915050565b60006020828403121561121257611211610b3d565b5b6000611220848285016111e7565b91505092915050565b7f4e487b7100000000000000000000000000000000000000000000000000000000600052601160045260246000fd5b600061126382610aff565b915061126e83610aff565b92508282101561128157611280611229565b5b828203905092915050565b7f4e487b7100000000000000000000000000000000000000000000000000000000600052603260045260246000fd5b7f4e487b7100000000000000000000000000000000000000000000000000000000600052601260045260246000fd5b60006112f582610aff565b915061130083610aff565b9250826113105761130f6112bb565b5b828206905092915050565b600081905092915050565b50565b600061133660008361131b565b915061134182611326565b600082019050919050565b600061135782611329565b915081905091905056fea26469706673582212204b50f5043d1c6f31f707f45dcf4acf2c3a80766f903390b90e8f4fe4e58d861264736f6c63430008090033",
  "linkReferences": {},
  "deployedLinkReferences": {}
}