{
  "address": "0x3211Ad7597d89caB7d317eA08a405868C512e340",
  "abi": [
    {
      "inputs": [
        {
          "internalType": "address",
          "name": "vrfCoordinatorV2",
          "type": "address"
        },
        {
          "internalType": "uint256",
          "name": "entranceFee",
          "type": "uint256"
        },
        {
          "internalType": "bytes32",
          "name": "gasLane",
          "type": "bytes32"
        },
        {
          "internalType": "uint64",
          "name": "subscriptionId",
          "type": "uint64"
        },
        {
          "internalType": "uint32",
          "name": "callbackGasLimit",
          "type": "uint32"
        },
        {
          "internalType": "uint256",
          "name": "interval",
          "type": "uint256"
        }
      ],
      "stateMutability": "nonpayable",
      "type": "constructor"
    },
    {
      "inputs": [],
      "name": "Lottery__LotteryNotOpen",
      "type": "error"
    },
    {
      "inputs": [],
      "name": "Lottery__SendMoreETH",
      "type": "error"
    },
    {
      "inputs": [],
      "name": "Lottery__TransferFailed",
      "type": "error"
    },
    {
      "inputs": [
        {
          "internalType": "address",
          "name": "have",
          "type": "address"
        },
        {
          "internalType": "address",
          "name": "want",
          "type": "address"
        }
      ],
      "name": "OnlyCoordinatorCanFulfill",
      "type": "error"
    },
    {
      "inputs": [
        {
          "internalType": "uint256",
          "name": "currentBalance",
          "type": "uint256"
        },
        {
          "internalType": "uint256",
          "name": "numPlayers",
          "type": "uint256"
        },
        {
          "internalType": "uint256",
          "name": "lotteryState",
          "type": "uint256"
        }
      ],
      "name": "error_LotteryUpkeepNotNeeded",
      "type": "error"
    },
    {
      "anonymous": false,
      "inputs": [
        {
          "indexed": true,
          "internalType": "address",
          "name": "player",
          "type": "address"
        }
      ],
      "name": "LotteryEnter",
      "type": "event"
    },
    {
      "anonymous": false,
      "inputs": [
        {
          "indexed": true,
          "internalType": "uint256",
          "name": "requestId",
          "type": "uint256"
        }
      ],
      "name": "RequestedLotteryWinner",
      "type": "event"
    },
    {
      "anonymous": false,
      "inputs": [
        {
          "indexed": true,
          "internalType": "address",
          "name": "winner",
          "type": "address"
        }
      ],
      "name": "WinnerPicked",
      "type": "event"
    },
    {
      "inputs": [
        {
          "internalType": "bytes",
          "name": "",
          "type": "bytes"
        }
      ],
      "name": "checkUpkeep",
      "outputs": [
        {
          "internalType": "bool",
          "name": "upkeepNeeded",
          "type": "bool"
        },
        {
          "internalType": "bytes",
          "name": "",
          "type": "bytes"
        }
      ],
      "stateMutability": "view",
      "type": "function"
    },
    {
      "inputs": [],
      "name": "enterLottery",
      "outputs": [],
      "stateMutability": "payable",
      "type": "function"
    },
    {
      "inputs": [],
      "name": "getBalance",
      "outputs": [
        {
          "internalType": "uint256",
          "name": "",
          "type": "uint256"
        }
      ],
      "stateMutability": "view",
      "type": "function"
    },
    {
      "inputs": [],
      "name": "getEntranceFee",
      "outputs": [
        {
          "internalType": "uint256",
          "name": "",
          "type": "uint256"
        }
      ],
      "stateMutability": "view",
      "type": "function"
    },
    {
      "inputs": [],
      "name": "getInterval",
      "outputs": [
        {
          "internalType": "uint256",
          "name": "",
          "type": "uint256"
        }
      ],
      "stateMutability": "view",
      "type": "function"
    },
    {
      "inputs": [],
      "name": "getLastTimeStamp",
      "outputs": [
        {
          "internalType": "uint256",
          "name": "",
          "type": "uint256"
        }
      ],
      "stateMutability": "view",
      "type": "function"
    },
    {
      "inputs": [],
      "name": "getLotteryState",
      "outputs": [
        {
          "internalType": "enum Lottery.LotteryState",
          "name": "",
          "type": "uint8"
        }
      ],
      "stateMutability": "view",
      "type": "function"
    },
    {
      "inputs": [],
      "name": "getNumWords",
      "outputs": [
        {
          "internalType": "uint256",
          "name": "",
          "type": "uint256"
        }
      ],
      "stateMutability": "pure",
      "type": "function"
    },
    {
      "inputs": [],
      "name": "getNumberOfPlayers",
      "outputs": [
        {
          "internalType": "uint256",
          "name": "",
          "type": "uint256"
        }
      ],
      "stateMutability": "view",
      "type": "function"
    },
    {
      "inputs": [
        {
          "internalType": "uint256",
          "name": "playerIndex",
          "type": "uint256"
        }
      ],
      "name": "getPlayer",
      "outputs": [
        {
          "internalType": "address",
          "name": "",
          "type": "address"
        }
      ],
      "stateMutability": "view",
      "type": "function"
    },
    {
      "inputs": [],
      "name": "getRecentWinner",
      "outputs": [
        {
          "internalType": "address",
          "name": "",
          "type": "address"
        }
      ],
      "stateMutability": "view",
      "type": "function"
    },
    {
      "inputs": [],
      "name": "getRequestConfirmations",
      "outputs": [
        {
          "internalType": "uint256",
          "name": "",
          "type": "uint256"
        }
      ],
      "stateMutability": "pure",
      "type": "function"
    },
    {
      "inputs": [
        {
          "internalType": "bytes",
          "name": "",
          "type": "bytes"
        }
      ],
      "name": "performUpkeep",
      "outputs": [],
      "stateMutability": "nonpayable",
      "type": "function"
    },
    {
      "inputs": [
        {
          "internalType": "uint256",
          "name": "requestId",
          "type": "uint256"
        },
        {
          "internalType": "uint256[]",
          "name": "randomWords",
          "type": "uint256[]"
        }
      ],
      "name": "rawFulfillRandomWords",
      "outputs": [],
      "stateMutability": "nonpayable",
      "type": "function"
    }
  ],
  "transactionHash": "0xeedae340616a1a0c185c7d6bee7440595e8fe10d6b1149a8c32a0e28fce107ed",
  "args": [
    "0x6168499c0cFfCaCD319c818142124B7A15E857ab",
    "10000000000000000",
    "0xd89b2bf150e3b9e13446986e571fb9cab24b13cea0a43ea20a6049a85cc807cc",
    "9945",
    "500000",
    "30"
  ],
  "numDeployments": 1,
  "solcInputHash": "be7fb1c6b30f2d5eeb0c7e7c1b2db0c4",
  "bytecode": "0x6101606040523480156200001257600080fd5b50604051620018c3380380620018c38339818101604052810190620000389190620001ad565b858073ffffffffffffffffffffffffffffffffffffffff1660808173ffffffffffffffffffffffffffffffffffffffff1660601b81525050508460a081815250508573ffffffffffffffffffffffffffffffffffffffff1660c08173ffffffffffffffffffffffffffffffffffffffff1660601b815250508360e081815250508267ffffffffffffffff166101008167ffffffffffffffff1660c01b815250508163ffffffff166101208163ffffffff1660e01b815250506000600260146101000a81548160ff02191690836001811115620001195762000118620002b5565b5b0217905550426001819055508061014081815250505050505050506200036b565b6000815190506200014b81620002e9565b92915050565b600081519050620001628162000303565b92915050565b60008151905062000179816200031d565b92915050565b600081519050620001908162000337565b92915050565b600081519050620001a78162000351565b92915050565b60008060008060008060c08789031215620001cd57620001cc620002e4565b5b6000620001dd89828a016200013a565b9650506020620001f089828a0162000168565b95505060406200020389828a0162000151565b94505060606200021689828a0162000196565b93505060806200022989828a016200017f565b92505060a06200023c89828a0162000168565b9150509295509295509295565b6000620002568262000267565b9050919050565b6000819050919050565b600073ffffffffffffffffffffffffffffffffffffffff82169050919050565b6000819050919050565b600063ffffffff82169050919050565b600067ffffffffffffffff82169050919050565b7f4e487b7100000000000000000000000000000000000000000000000000000000600052602160045260246000fd5b600080fd5b620002f48162000249565b81146200030057600080fd5b50565b6200030e816200025d565b81146200031a57600080fd5b50565b620003288162000287565b81146200033457600080fd5b50565b620003428162000291565b81146200034e57600080fd5b50565b6200035c81620002a1565b81146200036857600080fd5b50565b60805160601c60a05160c05160601c60e0516101005160c01c6101205160e01c610140516114dc620003e7600039600081816106cc0152610775015260006105640152600061054101526000610520015260006104e4015260008181610340015261079b01526000818161036e01526103c201526114dc6000f3fe6080604052600436106100dd5760003560e01c80636b68c03c1161007f578063c1af578511610059578063c1af57851461029f578063c1c244e8146102a9578063e55ae4e8146102d4578063fd6673f514610311576100dd565b80636b68c03c1461020b5780636e04ff0d1461023657806391ad27b414610274576100dd565b80634585e33b116100bb5780634585e33b14610161578063473f1ddc1461018a57806353a2c19a146101b55780635f1b0fd8146101e0576100dd565b806309bc33a7146100e257806312065fe01461010d5780631fe543e314610138575b600080fd5b3480156100ee57600080fd5b506100f761033c565b60405161010491906110e2565b60405180910390f35b34801561011957600080fd5b50610122610364565b60405161012f91906110e2565b60405180910390f35b34801561014457600080fd5b5061015f600480360381019061015a9190610ebb565b61036c565b005b34801561016d57600080fd5b5061018860048036038101906101839190610dcb565b61042c565b005b34801561019657600080fd5b5061019f61062c565b6040516101ac9190611000565b60405180910390f35b3480156101c157600080fd5b506101ca610656565b6040516101d791906110e2565b60405180910390f35b3480156101ec57600080fd5b506101f5610665565b60405161020291906110e2565b60405180910390f35b34801561021757600080fd5b50610220610672565b60405161022d91906110c7565b60405180910390f35b34801561024257600080fd5b5061025d60048036038101906102589190610e18565b610689565b60405161026b929190611044565b60405180910390f35b34801561028057600080fd5b50610289610771565b60405161029691906110e2565b60405180910390f35b6102a7610799565b005b3480156102b557600080fd5b506102be610908565b6040516102cb91906110e2565b60405180910390f35b3480156102e057600080fd5b506102fb60048036038101906102f69190610e61565b610912565b6040516103089190611000565b60405180910390f35b34801561031d57600080fd5b50610326610959565b60405161033391906110e2565b60405180910390f35b60007f0000000000000000000000000000000000000000000000000000000000000000905090565b600047905090565b7f000000000000000000000000000000000000000000000000000000000000000073ffffffffffffffffffffffffffffffffffffffff163373ffffffffffffffffffffffffffffffffffffffff161461041e57337f00000000000000000000000000000000000000000000000000000000000000006040517f1cf993f400000000000000000000000000000000000000000000000000000000815260040161041592919061101b565b60405180910390fd5b6104288282610965565b5050565b600061044660405180602001604052806000815250610689565b509050806104b55747600080549050600260149054906101000a900460ff166001811115610477576104766113bc565b5b6040517fddbb35a80000000000000000000000000000000000000000000000000000000081526004016104ac939291906110fd565b60405180910390fd5b6001600260146101000a81548160ff021916908360018111156104db576104da6113bc565b5b021790555060007f000000000000000000000000000000000000000000000000000000000000000073ffffffffffffffffffffffffffffffffffffffff16635d3b1d307f00000000000000000000000000000000000000000000000000000000000000007f000000000000000000000000000000000000000000000000000000000000000060037f000000000000000000000000000000000000000000000000000000000000000060016040518663ffffffff1660e01b81526004016105a5959493929190611074565b602060405180830381600087803b1580156105bf57600080fd5b505af11580156105d3573d6000803e3d6000fd5b505050506040513d601f19601f820116820180604052508101906105f79190610e8e565b9050807febf56642252004c18a776f30d528e7a0ce8c5db14b6596fb6550f630c8a24c6c60405160405180910390a250505050565b6000600260009054906101000a900473ffffffffffffffffffffffffffffffffffffffff16905090565b6000600163ffffffff16905090565b6000600361ffff16905090565b6000600260149054906101000a900460ff16905090565b600060606000600260149054906101000a900460ff1660018111156106b1576106b06113bc565b5b600060018111156106c5576106c46113bc565b5b14905060007f0000000000000000000000000000000000000000000000000000000000000000600154426106f991906111dd565b119050600080600080549050119050600080471190508380156107195750825b80156107225750815b801561072b5750805b9550856040518060400160405280600381526020017f30783000000000000000000000000000000000000000000000000000000000008152509550955050505050915091565b60007f0000000000000000000000000000000000000000000000000000000000000000905090565b7f00000000000000000000000000000000000000000000000000000000000000003410156107f3576040517f1eefa5a700000000000000000000000000000000000000000000000000000000815260040160405180910390fd5b60006001811115610807576108066113bc565b5b600260149054906101000a900460ff166001811115610829576108286113bc565b5b14610860576040517f823ea8bb00000000000000000000000000000000000000000000000000000000815260040160405180910390fd5b6000339080600181540180825580915050600190039060005260206000200160009091909190916101000a81548173ffffffffffffffffffffffffffffffffffffffff021916908373ffffffffffffffffffffffffffffffffffffffff1602179055503373ffffffffffffffffffffffffffffffffffffffff167f1d64fb5ba9f2548c5b98468d58f25b87b9e866afee0122e92d9fe722bf85076c60405160405180910390a2565b6000600154905090565b6000808281548110610927576109266113eb565b5b9060005260206000200160009054906101000a900473ffffffffffffffffffffffffffffffffffffffff169050919050565b60008080549050905090565b60008080549050826000815181106109805761097f6113eb565b5b6020026020010151610992919061132d565b905060008082815481106109a9576109a86113eb565b5b9060005260206000200160009054906101000a900473ffffffffffffffffffffffffffffffffffffffff16905080600260006101000a81548173ffffffffffffffffffffffffffffffffffffffff021916908373ffffffffffffffffffffffffffffffffffffffff1602179055506000600260146101000a81548160ff02191690836001811115610a3d57610a3c6113bc565b5b0217905550600067ffffffffffffffff811115610a5d57610a5c61141a565b5b604051908082528060200260200182016040528015610a8b5781602001602082028036833780820191505090505b5060009080519060200190610aa1929190610b96565b504260018190555060008173ffffffffffffffffffffffffffffffffffffffff1647604051610acf90610feb565b60006040518083038185875af1925050503d8060008114610b0c576040519150601f19603f3d011682016040523d82523d6000602084013e610b11565b606091505b5050905080610b4c576040517f1c94012000000000000000000000000000000000000000000000000000000000815260040160405180910390fd5b8173ffffffffffffffffffffffffffffffffffffffff167f5b690ec4a06fe979403046eaeea5b3ce38524683c3001f662c8b5a829632f7df60405160405180910390a25050505050565b828054828255906000526020600020908101928215610c0f579160200282015b82811115610c0e5782518260006101000a81548173ffffffffffffffffffffffffffffffffffffffff021916908373ffffffffffffffffffffffffffffffffffffffff16021790555091602001919060010190610bb6565b5b509050610c1c9190610c20565b5090565b5b80821115610c39576000816000905550600101610c21565b5090565b6000610c50610c4b84611159565b611134565b90508083825260208201905082856020860282011115610c7357610c72611453565b5b60005b85811015610ca35781610c898882610da1565b845260208401935060208301925050600181019050610c76565b5050509392505050565b6000610cc0610cbb84611185565b611134565b905082815260208101848484011115610cdc57610cdb611458565b5b610ce78482856112ba565b509392505050565b600082601f830112610d0457610d0361144e565b5b8135610d14848260208601610c3d565b91505092915050565b60008083601f840112610d3357610d3261144e565b5b8235905067ffffffffffffffff811115610d5057610d4f611449565b5b602083019150836001820283011115610d6c57610d6b611453565b5b9250929050565b600082601f830112610d8857610d8761144e565b5b8135610d98848260208601610cad565b91505092915050565b600081359050610db08161148f565b92915050565b600081519050610dc58161148f565b92915050565b60008060208385031215610de257610de1611462565b5b600083013567ffffffffffffffff811115610e0057610dff61145d565b5b610e0c85828601610d1d565b92509250509250929050565b600060208284031215610e2e57610e2d611462565b5b600082013567ffffffffffffffff811115610e4c57610e4b61145d565b5b610e5884828501610d73565b91505092915050565b600060208284031215610e7757610e76611462565b5b6000610e8584828501610da1565b91505092915050565b600060208284031215610ea457610ea3611462565b5b6000610eb284828501610db6565b91505092915050565b60008060408385031215610ed257610ed1611462565b5b6000610ee085828601610da1565b925050602083013567ffffffffffffffff811115610f0157610f0061145d565b5b610f0d85828601610cef565b9150509250929050565b610f2081611211565b82525050565b610f2f81611223565b82525050565b610f3e8161122f565b82525050565b6000610f4f826111b6565b610f5981856111c1565b9350610f698185602086016112c9565b610f7281611467565b840191505092915050565b610f86816112a8565b82525050565b6000610f996000836111d2565b9150610fa482611478565b600082019050919050565b610fb88161124c565b82525050565b610fc78161127a565b82525050565b610fd681611284565b82525050565b610fe581611294565b82525050565b6000610ff682610f8c565b9150819050919050565b60006020820190506110156000830184610f17565b92915050565b60006040820190506110306000830185610f17565b61103d6020830184610f17565b9392505050565b60006040820190506110596000830185610f26565b818103602083015261106b8184610f44565b90509392505050565b600060a0820190506110896000830188610f35565b6110966020830187610fdc565b6110a36040830186610faf565b6110b06060830185610fcd565b6110bd6080830184610fcd565b9695505050505050565b60006020820190506110dc6000830184610f7d565b92915050565b60006020820190506110f76000830184610fbe565b92915050565b60006060820190506111126000830186610fbe565b61111f6020830185610fbe565b61112c6040830184610fbe565b949350505050565b600061113e61114f565b905061114a82826112fc565b919050565b6000604051905090565b600067ffffffffffffffff8211156111745761117361141a565b5b602082029050602081019050919050565b600067ffffffffffffffff8211156111a05761119f61141a565b5b6111a982611467565b9050602081019050919050565b600081519050919050565b600082825260208201905092915050565b600081905092915050565b60006111e88261127a565b91506111f38361127a565b9250828210156112065761120561135e565b5b828203905092915050565b600061121c8261125a565b9050919050565b60008115159050919050565b6000819050919050565b60008190506112478261147b565b919050565b600061ffff82169050919050565b600073ffffffffffffffffffffffffffffffffffffffff82169050919050565b6000819050919050565b600063ffffffff82169050919050565b600067ffffffffffffffff82169050919050565b60006112b382611239565b9050919050565b82818337600083830152505050565b60005b838110156112e75780820151818401526020810190506112cc565b838111156112f6576000848401525b50505050565b61130582611467565b810181811067ffffffffffffffff821117156113245761132361141a565b5b80604052505050565b60006113388261127a565b91506113438361127a565b9250826113535761135261138d565b5b828206905092915050565b7f4e487b7100000000000000000000000000000000000000000000000000000000600052601160045260246000fd5b7f4e487b7100000000000000000000000000000000000000000000000000000000600052601260045260246000fd5b7f4e487b7100000000000000000000000000000000000000000000000000000000600052602160045260246000fd5b7f4e487b7100000000000000000000000000000000000000000000000000000000600052603260045260246000fd5b7f4e487b7100000000000000000000000000000000000000000000000000000000600052604160045260246000fd5b600080fd5b600080fd5b600080fd5b600080fd5b600080fd5b600080fd5b6000601f19601f8301169050919050565b50565b6002811061148c5761148b6113bc565b5b50565b6114988161127a565b81146114a357600080fd5b5056fea26469706673582212205f1047bab01e36eb29021ccb384aa4070586fad325e46e4718a9a7d49b9d9b4764736f6c63430008070033",
  "devdoc": {
    "author": "DEFIdaniel",
    "details": "This implements Chainlink VRF v2 and Chainlink Keepers",
    "kind": "dev",
    "methods": {
      "checkUpkeep(bytes)": {
        "details": "This function uses chainlink keeper node calls   When it returns true, can execute the lottery function"
      },
      "performUpkeep(bytes)": {
        "details": "Once `checkUpkeep` is returning `true`, this function is called and it kicks off a Chainlink VRF call to get a random winner."
      }
    },
    "title": "A sample lottery contract",
    "version": 1
  },
  "userdoc": {
    "kind": "user",
    "methods": {},
    "notice": "This contract is for an untamperable, decentralized contract",
    "version": 1
  },
  "storageLayout": {
    "storage": [
      {
        "astId": 236,
        "contract": "contracts/Lottery.sol:Lottery",
        "label": "s_players",
        "offset": 0,
        "slot": "0",
        "type": "t_array(t_address_payable)dyn_storage"
      },
      {
        "astId": 255,
        "contract": "contracts/Lottery.sol:Lottery",
        "label": "s_lastTimeStamp",
        "offset": 0,
        "slot": "1",
        "type": "t_uint256"
      },
      {
        "astId": 257,
        "contract": "contracts/Lottery.sol:Lottery",
        "label": "s_recentWinner",
        "offset": 0,
        "slot": "2",
        "type": "t_address"
      },
      {
        "astId": 260,
        "contract": "contracts/Lottery.sol:Lottery",
        "label": "s_lotteryState",
        "offset": 20,
        "slot": "2",
        "type": "t_enum(LotteryState)231"
      }
    ],
    "types": {
      "t_address": {
        "encoding": "inplace",
        "label": "address",
        "numberOfBytes": "20"
      },
      "t_address_payable": {
        "encoding": "inplace",
        "label": "address payable",
        "numberOfBytes": "20"
      },
      "t_array(t_address_payable)dyn_storage": {
        "base": "t_address_payable",
        "encoding": "dynamic_array",
        "label": "address payable[]",
        "numberOfBytes": "32"
      },
      "t_enum(LotteryState)231": {
        "encoding": "inplace",
        "label": "enum Lottery.LotteryState",
        "numberOfBytes": "1"
      },
      "t_uint256": {
        "encoding": "inplace",
        "label": "uint256",
        "numberOfBytes": "32"
      }
    }
  }
}